S01700004763634170706C69636174696F6E312E737265635B
S113000012C019C018C017C016C015C014C013C040
S113001012C011C010C00FC00EC00DC00CC00BC068
S11300200AC009C008C011241FBECFE5D4E0DEBF5A
S1130030CDBF0DD033C0E4CF83E389B988E18AB959
S113004086E880BD08955D9BFECF8CB90895F4DFEA
S113005088E4F9DF85E6F7DF8CE6F5DF8CE6F3DF8D
S11300608FE6F1DF8CE2EFDF80E2EDDF87E5EBDFA7
S11300708FE6E9DF82E7E7DF8CE6E5DF84E6E3DFAE
S113008081E2E1DF8AE0DFDF2FE38DE093E02150BE
S113009080409040E1F700C00000DACFF894FFCF31
S9030000FC
